{
  "contractName": "BHive",
  "abi": [
    {
      "inputs": [
        {
          "internalType": "string",
          "name": "fileId",
          "type": "string"
        },
        {
          "internalType": "string",
          "name": "cid",
          "type": "string"
        }
      ],
      "name": "setContentId",
      "outputs": [],
      "stateMutability": "nonpayable",
      "type": "function"
    },
    {
      "inputs": [
        {
          "internalType": "string",
          "name": "fileId",
          "type": "string"
        }
      ],
      "name": "getContentId",
      "outputs": [
        {
          "internalType": "string",
          "name": "",
          "type": "string"
        }
      ],
      "stateMutability": "view",
      "type": "function"
    },
    {
      "inputs": [
        {
          "internalType": "string",
          "name": "walletId",
          "type": "string"
        }
      ],
      "name": "setUser",
      "outputs": [],
      "stateMutability": "nonpayable",
      "type": "function"
    },
    {
      "inputs": [],
      "name": "getUser",
      "outputs": [
        {
          "internalType": "string",
          "name": "",
          "type": "string"
        }
      ],
      "stateMutability": "view",
      "type": "function"
    }
  ],
  "bytecode": "0x608060405234801561001057600080fd5b506106c6806100206000396000f3fe608060405234801561001057600080fd5b506004361061004c5760003560e01c8063832880e714610051578063875f71791461006f578063d0020fad1461009f578063eda22dc5146100bb575b600080fd5b6100596100d7565b60405161006691906103b0565b60405180910390f35b6100896004803603810190610084919061051b565b61016b565b60405161009691906103b0565b60405180910390f35b6100b960048036038101906100b4919061051b565b61021e565b005b6100d560048036038101906100d09190610564565b61023a565b005b60606000800180546100e89061060b565b80601f01602080910402602001604051908101604052809291908181526020018280546101149061060b565b80156101615780601f1061013657610100808354040283529160200191610161565b820191906000526020600020905b81548152906001019060200180831161014457829003601f168201915b5050505050905090565b60606000600101826040516101809190610679565b908152602001604051809103902080546101999061060b565b80601f01602080910402602001604051908101604052809291908181526020018280546101c59061060b565b80156102125780601f106101e757610100808354040283529160200191610212565b820191906000526020600020905b8154815290600101906020018083116101f557829003601f168201915b50505050509050919050565b80600080019080519060200190610236929190610274565b5050565b8060006001018360405161024e9190610679565b9081526020016040518091039020908051906020019061026f929190610274565b505050565b8280546102809061060b565b90600052602060002090601f0160209004810192826102a257600085556102e9565b82601f106102bb57805160ff19168380011785556102e9565b828001600101855582156102e9579182015b828111156102e85782518255916020019190600101906102cd565b5b5090506102f691906102fa565b5090565b5b808211156103135760008160009055506001016102fb565b5090565b600081519050919050565b600082825260208201905092915050565b60005b83811015610351578082015181840152602081019050610336565b83811115610360576000848401525b50505050565b6000601f19601f8301169050919050565b600061038282610317565b61038c8185610322565b935061039c818560208601610333565b6103a581610366565b840191505092915050565b600060208201905081810360008301526103ca8184610377565b905092915050565b6000604051905090565b600080fd5b600080fd5b600080fd5b600080fd5b7f4e487b7100000000000000000000000000000000000000000000000000000000600052604160045260246000fd5b61042882610366565b810181811067ffffffffffffffff82111715610447576104466103f0565b5b80604052505050565b600061045a6103d2565b9050610466828261041f565b919050565b600067ffffffffffffffff821115610486576104856103f0565b5b61048f82610366565b9050602081019050919050565b82818337600083830152505050565b60006104be6104b98461046b565b610450565b9050828152602081018484840111156104da576104d96103eb565b5b6104e584828561049c565b509392505050565b600082601f830112610502576105016103e6565b5b81356105128482602086016104ab565b91505092915050565b600060208284031215610531576105306103dc565b5b600082013567ffffffffffffffff81111561054f5761054e6103e1565b5b61055b848285016104ed565b91505092915050565b6000806040838503121561057b5761057a6103dc565b5b600083013567ffffffffffffffff811115610599576105986103e1565b5b6105a5858286016104ed565b925050602083013567ffffffffffffffff8111156105c6576105c56103e1565b5b6105d2858286016104ed565b9150509250929050565b7f4e487b7100000000000000000000000000000000000000000000000000000000600052602260045260246000fd5b6000600282049050600182168061062357607f821691505b60208210811415610637576106366105dc565b5b50919050565b600081905092915050565b600061065382610317565b61065d818561063d565b935061066d818560208601610333565b80840191505092915050565b60006106858284610648565b91508190509291505056fea2646970667358221220ec6f3f2527b55dad97919f1e8a1d792c0c885ffdabe156b86b5b907ce66d3a3364736f6c634300080a0033",
  "immutableReferences": {},
  "source": "// SPDX-License-Identifier:MIT\r\npragma solidity ^0.8.0;\r\n\r\ncontract BHive{\r\n\r\n    struct User{\r\n        string walletId;\r\n        mapping(string => string) files;\r\n    }\r\n    \r\n    User user;\r\n    \r\n    function setContentId(string memory fileId, string memory cid) public {\r\n        user.files[fileId] = cid;\r\n    }\r\n    \r\n    function getContentId(string memory fileId) public view returns (string memory) {\r\n        return user.files[fileId];\r\n    }\r\n    \r\n    function setUser(string memory walletId) public {\r\n        user.walletId = walletId;\r\n    }\r\n    \r\n    function getUser() public view returns (string memory) {\r\n        return user.walletId;\r\n    }\r\n}\r\n",
  "sourcePath": "C:\\Users\\Barath\\starstorage\\contracts\\contracts-api\\contracts\\Main.sol",
  "compiler": {
    "name": "solc",
    "version": "0.8.10+commit.fc410830.Emscripten.clang"
  },
  "schemaVersion": "3.4.8",
  "updatedAt": "2023-03-19T06:03:23.862Z",
  "devdoc": {
    "kind": "dev",
    "methods": {},
    "version": 1
  },
  "userdoc": {
    "kind": "user",
    "methods": {},
    "version": 1
  }
}