{
  "contractName": "Main",
  "abi": [
    {
      "inputs": [
        {
          "internalType": "string",
          "name": "fileId",
          "type": "string"
        },
        {
          "internalType": "string",
          "name": "cid",
          "type": "string"
        }
      ],
      "name": "setContentId",
      "outputs": [
        {
          "internalType": "string",
          "name": "",
          "type": "string"
        }
      ],
      "stateMutability": "nonpayable",
      "type": "function"
    },
    {
      "inputs": [
        {
          "internalType": "string",
          "name": "fileId",
          "type": "string"
        }
      ],
      "name": "getContentId",
      "outputs": [
        {
          "internalType": "string",
          "name": "",
          "type": "string"
        }
      ],
      "stateMutability": "view",
      "type": "function",
      "constant": true
    },
    {
      "inputs": [
        {
          "internalType": "string",
          "name": "walletId",
          "type": "string"
        }
      ],
      "name": "setUser",
      "outputs": [],
      "stateMutability": "nonpayable",
      "type": "function"
    },
    {
      "inputs": [],
      "name": "getUser",
      "outputs": [
        {
          "internalType": "string",
          "name": "",
          "type": "string"
        }
      ],
      "stateMutability": "view",
      "type": "function",
      "constant": true
    }
  ],
  "bytecode": "0x608060405234801561001057600080fd5b50610716806100206000396000f3fe608060405234801561001057600080fd5b506004361061004c5760003560e01c8063832880e714610051578063875f71791461006f578063d0020fad1461009f578063eda22dc5146100bb575b600080fd5b6100596100eb565b6040516100669190610400565b60405180910390f35b6100896004803603810190610084919061056b565b61017f565b6040516100969190610400565b60405180910390f35b6100b960048036038101906100b4919061056b565b610232565b005b6100d560048036038101906100d091906105b4565b61024e565b6040516100e29190610400565b60405180910390f35b60606000800180546100fc9061065b565b80601f01602080910402602001604051908101604052809291908181526020018280546101289061065b565b80156101755780601f1061014a57610100808354040283529160200191610175565b820191906000526020600020905b81548152906001019060200180831161015857829003601f168201915b5050505050905090565b606060006001018260405161019491906106c9565b908152602001604051809103902080546101ad9061065b565b80601f01602080910402602001604051908101604052809291908181526020018280546101d99061065b565b80156102265780601f106101fb57610100808354040283529160200191610226565b820191906000526020600020905b81548152906001019060200180831161020957829003601f168201915b50505050509050919050565b8060008001908051906020019061024a9291906102c4565b5050565b60608160006001018460405161026491906106c9565b908152602001604051809103902090805190602001906102859291906102c4565b506040518060400160405280600781526020017f7375636365737300000000000000000000000000000000000000000000000000815250905092915050565b8280546102d09061065b565b90600052602060002090601f0160209004810192826102f25760008555610339565b82601f1061030b57805160ff1916838001178555610339565b82800160010185558215610339579182015b8281111561033857825182559160200191906001019061031d565b5b509050610346919061034a565b5090565b5b8082111561036357600081600090555060010161034b565b5090565b600081519050919050565b600082825260208201905092915050565b60005b838110156103a1578082015181840152602081019050610386565b838111156103b0576000848401525b50505050565b6000601f19601f8301169050919050565b60006103d282610367565b6103dc8185610372565b93506103ec818560208601610383565b6103f5816103b6565b840191505092915050565b6000602082019050818103600083015261041a81846103c7565b905092915050565b6000604051905090565b600080fd5b600080fd5b600080fd5b600080fd5b7f4e487b7100000000000000000000000000000000000000000000000000000000600052604160045260246000fd5b610478826103b6565b810181811067ffffffffffffffff8211171561049757610496610440565b5b80604052505050565b60006104aa610422565b90506104b6828261046f565b919050565b600067ffffffffffffffff8211156104d6576104d5610440565b5b6104df826103b6565b9050602081019050919050565b82818337600083830152505050565b600061050e610509846104bb565b6104a0565b90508281526020810184848401111561052a5761052961043b565b5b6105358482856104ec565b509392505050565b600082601f83011261055257610551610436565b5b81356105628482602086016104fb565b91505092915050565b6000602082840312156105815761058061042c565b5b600082013567ffffffffffffffff81111561059f5761059e610431565b5b6105ab8482850161053d565b91505092915050565b600080604083850312156105cb576105ca61042c565b5b600083013567ffffffffffffffff8111156105e9576105e8610431565b5b6105f58582860161053d565b925050602083013567ffffffffffffffff81111561061657610615610431565b5b6106228582860161053d565b9150509250929050565b7f4e487b7100000000000000000000000000000000000000000000000000000000600052602260045260246000fd5b6000600282049050600182168061067357607f821691505b602082108114156106875761068661062c565b5b50919050565b600081905092915050565b60006106a382610367565b6106ad818561068d565b93506106bd818560208601610383565b80840191505092915050565b60006106d58284610698565b91508190509291505056fea2646970667358221220a060ce9ea785ab52b3b9058e2d21296bc95e93955a103e522fd96b6c9829b96e64736f6c634300080a0033",
  "immutableReferences": {},
  "source": "// SPDX-License-Identifier:MIT\r\npragma solidity ^0.8.0;\r\n\r\ncontract Main{\r\n\r\n    struct User{\r\n        string walletId;\r\n        mapping(string => string) files;\r\n    }\r\n    \r\n    User user;\r\n    \r\n    function setContentId(string memory fileId, string memory cid) public  returns (string memory) {\r\n        user.files[fileId] = cid;\r\n        return \"success\";\r\n    }\r\n    \r\n    function getContentId(string memory fileId) public view returns (string memory) {\r\n        return user.files[fileId];\r\n    }\r\n    \r\n    function setUser(string memory walletId) public {\r\n        user.walletId = walletId;\r\n    }\r\n    \r\n    function getUser() public view returns (string memory) {\r\n        return user.walletId;\r\n    }\r\n}\r\n",
  "sourcePath": "C:\\Users\\Barath\\starstorage\\contracts\\contracts-api\\contracts\\Main.sol",
  "compiler": {
    "name": "solc",
    "version": "0.8.10+commit.fc410830.Emscripten.clang"
  },
  "schemaVersion": "3.4.8",
  "updatedAt": "2023-03-19T14:55:17.045Z",
  "networkType": "ethereum",
  "devdoc": {
    "kind": "dev",
    "methods": {},
    "version": 1
  },
  "userdoc": {
    "kind": "user",
    "methods": {},
    "version": 1
  }
}